:1000000039EF00F0010E056E0650016E04E0D89045
:100010000536012EFCD793CF08F00550FF0A0816CD
:1000200008C093FF936881CF08F0072C06D00550D5
:100030000812936A08C08AFF06D00550FF0A081606
:10004000936A08C08AFF1200EA6A070EE96EEF5051
:100050000EE0010E016E006A002EFED7012EFBD7C6
:100060004A0E006E002EFED700D0EF2EF2D75BEFC7
:1000700000F0F86AD09E046AC180C182C184C19632
:10008000056A045202E0000E01D0010E046E070E54
:10009000066E04C007F0B6DF010E066E04C007F05E
:1000A000B1DF040E066E04C007F0ACDF040E066E6E
:0E00B000FA0E076EC9D7062EFBD7E3D7030062
:020000040030CA
:0E00000000220E0E000181000FC00FE00F4025
:00000001FF
;PIC18F442
;CRC=B3D1  CREATED="16-août-17 21:11"
