:100000004BEF00F0000E936E936A05C08AFF53EF2A
:1000100000F0010E066E0550016E04E0D890063621
:10002000012EFCD793CF07F00650071207C093FFAD
:10003000936881500614076E075203E1000E016EAB
:1000400002D0010E016E55EF00F0010E086E065051
:10005000016E04E0D8900836012EFCD793CF09F04A
:100060000850FF0A091609C093FF072C09D09368AE
:1000700081CF09F008500912936A09C08AFF09D09C
:10008000936881CF09F00850FF0A0916936A09C0E6
:100090008AFF5CEF00F0F86AD09EC180C182C18403
:1000A000C1960568AFD7056AB4D701C005F0070E41
:0C00B000066E01C007F0C9D7F6D70300A8
:020000040030CA
:0E00000000220E0E000181000FC00FE00F4025
:00000001FF
;PIC18F442
;CRC=A869  CREATED="16-août-17 17:39"
