:040000002FEF01F0ED
:1000080000C017F001C016F00BC015F0F294D0D85C
:100018002E6A020E2E5CD8B0C4D0090E006E000EF7
:10002800016E2EC004F0000E056EC9D8190E00240A
:10003800E96E000E0120EA6EEECF01F0EECF02F07D
:10004800EECF03F0EECF04F0000E006E041808E1C6
:100058000050031805E10050021802E10150000A9F
:10006800D8B49DD0090E006E000E016E2EC004F0AB
:10007800000E056EA4D8190E0026000E0122040EEB
:100088000024E96E000E0120EA6EEECF01F0EECFFB
:1000980002F0000E021802E1000E01185BE1090EE1
:1000A800006E000E016E2EC004F0000E056E87D89B
:1000B800190E0026000E0122080E0024026E000E02
:1000C8000120036E02C0E9FF03C0EAFFEE50010FF2
:1000D800006E02C0E1FF03C0E2FF00C0E6FF090EA8
:1000E800006E000E016E2EC004F0000E056E67D87B
:1000F800190E0026000E0122060E0024E96E000EDD
:100108000120EA6EEECF01F0EECF02F0000E0218E9
:1001180002E1000E01181DE0090E006E000E016ECE
:100128002EC004F0000E056E4AD8190E0026000EE7
:100138000122040E0024E16E000E0120E26E060E7C
:100148000024E96E000E0120EA6EEECFE6FFEECF46
:10015800E6FF25D0090E006E000E016E2EC004F0D9
:10016800000E056E2CD8190E0026000E0122040E72
:100178000024026E000E0120036E02C0E9FF03C0D6
:10018800EAFF010EEE5C006E000EEE58016E02C032
:10019800E1FF03C0E2FF00C0E6FF01C0E6FF2E2A30
:1001A80038D717C000F016C001F015C00BF01100C9
:0E01B800D59EFF0ED76EE10ED66ED58E1200CC
:1001C6000B6A0A6A096A00500402F4CF09F0F3CFF9
:1001D60008F001500502F4CF0BF0F3CF0AF00050FF
:1001E6000502F3500926F4500A22E86A0B22015050
:1001F6000402F3500926F4500A22E86A0B2208C0CA
:1002060000F009C001F00AC002F00BC003F01200B2
:10021600010E2B6E2CC001F02BC000F0015004E043
:1002260000360090FF0FFBD700C02BF0001E0050D9
:1002360093162D50010A03E12B50811204D02B1C7A
:08024600006E00508116120049
:10024E000900F5CFE6FF0006FBE10106F9E1120019
:10025E00186A1852010ED8A4000E006E00C018F0D5
:10026E00070E2C6E00C02DF0CFDF010E2C6E18C0C5
:10027E002DF0CADF040E2C6E18C02DF0C5DF060E51
:10028E000B6E130E0C6EAD0E0D6E0D2EFED70C2ECC
:0E029E00FCD70B2EFAD700000000DBD7FFD7ED
:020000040030CA
:0D000100220F0EFF0181FF0FC00FE00F4026
:00000001FF
