:04000000A5EF03F075
:1000080000C01EF001C01DF002C01CF003C01BF0B0
:1000180004C01AF005C019F008C018F009C017F09C
:100028000AC016F00BC015F0E1CF23F0E2CF24F0A0
:10003800E9CF21F0EACF22F0F3CF1FF0F4CF20F080
:10004800F2944CDA476A020E475CD8B0C4D0090E65
:10005800006E000E016E47C004F0000E056EC2D996
:100068002A0E0024E96E000E0120EA6EEECF01F0A0
:10007800EECF02F0EECF03F0EECF04F0000E006EEC
:10008800041808E10050031805E10050021802E1C5
:100098000150000AD8B49DD0090E006E000E016E02
:1000A80047C004F0000E056E9DD92A0E0026000EEA
:1000B8000122040E0024E96E000E0120EA6EEECF44
:1000C80001F0EECF02F0000E021802E1000E011856
:1000D8005BE1090E006E000E016E47C004F0000ED1
:1000E800056E80D92A0E0026000E0122080E002473
:1000F800026E000E0120036E02C0E9FF03C0EAFF92
:10010800EE50010F006E02C0E1FF03C0E2FF00C025
:10011800E6FF090E006E000E016E47C004F0000EE7
:10012800056E60D92A0E0026000E0122060E002454
:10013800E96E000E0120EA6EEECF01F0EECF02F07C
:10014800000E021802E1000E01181DE0090E006EF3
:10015800000E016E47C004F0000E056E43D92A0E4A
:100168000026000E0122040E0024E16E000E01207C
:10017800E26E060E0024E96E000E0120EA6EEECF54
:10018800E6FFEECFE6FF25D0090E006E000E016EE9
:1001980047C004F0000E056E25D92A0E0026000E71
:1001A8000122040E0024026E000E0120036E02C01C
:1001B800E9FF03C0EAFF010EEE5C006E000EEE5888
:1001C800016E02C0E1FF03C0E2FF00C0E6FF01C00C
:1001D800E6FF472A38D71FC0F3FF20C0F4FF1EC030
:1001E80000F01DC001F01CC002F01BC003F01AC0D3
:1001F80004F019C005F018C008F017C009F016C0BF
:100208000AF015C00BF021C0E9FF22C0EAFF23C0A5
:08021800E1FF24C0E2FF110028
:100220005FD0819A818C818E284A292A000E295C10
:1002300002E1030E285C04E3010E3C6E286A296A81
:1002400061D0819A818C818E284A292A000E295CEE
:1002500002E1020E285C04E3020E3C6E286A296A61
:1002600051D0819A818C818E284A292A000E295CDE
:1002700002E1010E285C04E3030E3C6E286A296A41
:1002800041D0818A818C819E284A292A000E295CCE
:1002900002E1030E285C04E3040E3C6E286A296A1E
:1002A00031D0818A819C818E284A292A000E295CBE
:1002B00002E1020E285C04E3050E3C6E286A296AFE
:1002C00021D0819A818C818E284A292A000E295CAE
:1002D00002E1010E285C03E33C6A286A296A12D015
:1002E0003C50000A9EE03C50010AABE03C50020A40
:1002F000B8E03C50030AC5E03C50040AD2E03C5050
:06030000050ADFE0120017
:100306005FD0819081828184264A272A000E275C4D
:1003160002E1030E265C04E3010E256E266A276AB7
:1003260061D0819081828184264A272A000E275C2B
:1003360002E1020E265C04E3020E256E266A276A97
:1003460051D0819081828184264A272A000E275C1B
:1003560002E1010E265C04E3030E256E266A276A77
:1003660041D0818081828194264A272A000E275C0B
:1003760002E1030E265C04E3040E256E266A276A54
:1003860031D0818081928184264A272A000E275CFB
:1003960002E1020E265C04E3050E256E266A276A34
:1003A60021D0819081828184264A272A000E275CEB
:1003B60002E1010E265C03E3256A266A276A12D04B
:1003C6002550000A9EE02550010AABE02550020A9E
:1003D600B8E02550030AC5E02550040AD2E02550AE
:0603E600050ADFE0120031
:1003EC000B6A0A6A096A00500402F4CF09F0F3CFD1
:1003FC0008F001500502F4CF0BF0F3CF0AF00050D7
:10040C000502F3500926F4500A22E86A0B22015027
:10041C000402F3500926F4500A22E86A0B2208C0A1
:10042C0000F009C001F00AC002F00BC003F012008A
:10043C00090E006E000E016E46C004F0000E056E33
:10044C00CFDF2A0E0024E16E000E0120E26EE66A78
:10045C00E66AE66AE66A090E006E000E016E46C098
:10046C0004F0000E056EBCDF2A0E0026000E0122E1
:10047C00040E0024E16E000E0120E26EE66AE66ACC
:10048C00090E006E000E016E46C004F0000E056EE3
:10049C00A7DF2A0E0026000E0122060E0024E16EB4
:1004AC00000E0120E26EE66AE66A090E006E000E8E
:1004BC00016E46C004F0000E056E92DF2A0E002677
:1004CC00000E0122080E0024E16E000E0120E26EE7
:0404DC00E66A1200BA
:0404E000D38E1200A5
:0E04E400D59EFF0ED76EE10ED66ED58E12009D
:1004F200F250026EF29E0500FF6A0150FE6E00503D
:08050200FD6E02BEF28E120034
:10050A003D6A020E3D5C05E23DC046F092DF3D2A9F
:0C051A00F8D7040ED56EE1DFF28A120063
:10052600936AFF0E816E256A266A276A030E3C6E61
:06053600286A296A120088
:10053C003D6A020E3D5C6FE2090E006E000E016E0C
:10054C003DC004F0000E056E4BDF2A0E0026000E97
:10055C000122080E0024E96E000E0120EA6EEE5016
:10056C00000857E2090E006E000E016E3DC004F04B
:10057C00000E056E35DF2A0E0024E96E000E0120F8
:10058C00EA6EEECF00F0EECF01F0EECF02F0EECF40
:10059C0003F0A9DF090E006E000E016E3DC004F0E1
:1005AC00000E056E1DDF2A0E0026000E0122080E1D
:1005BC000024026E000E0120036E02C0E9FF03C08E
:1005CC00EAFFEE04006E02C0E1FF03C0E2FF00C0D0
:1005DC00E6FF090E006E000E016E3DC004F0000E29
:1005EC00056EFEDE2A0E0026000E0122060E0024E9
:1005FC00E96E000E0120EA6EEECF01F0EECF02F0B4
:10060C00000E021802E1000E011803E13DC046F095
:0A061C000FDF3D2A8ED75EDF1200CB
:100626000900F5CFE6FF0006FBE10106F9E112003D
:10063600456A090E006E000E016E45C004F0000EFC
:10064600056ED1DE2A0E0024E96E000E0120EA6E48
:10065600EECF01F0EECF02F0EECF03F0EECF04F0D6
:10066600000E006E041808E10050031805E1005062
:10067600021802E10150000A05E0020E455C02E2A2
:10068600452AD7D74550020A01E159D0090E006E16
:10069600000E016E45C004F0000E056EA4DE2A0EA3
:1006A6000024E16E000E0120E26E3DC0E6FF3EC072
:1006B600E6FF3FC0E6FF40C0E6FF090E006E000EF3
:1006C600016E45C004F0000E056E8DDE2A0E002672
:1006D600000E0122040E0024E16E000E0120E26EDF
:1006E60041C0E6FF42C0E6FF090E006E000E016E35
:1006F60045C004F0000E056E76DE2A0E0026000EBA
:100706000122060E0024E16E000E0120E26E43C0B7
:10071600E6FF44C0E6FF090E006E000E016E45C0FE
:1007260004F0000E056E5FDE2A0E0026000E012282
:10073600080E0024E16E000E0120E26EE66A120049
:04074600F28E12001D
:10074A00DFDEECDE060E3D6E030E3E6E000E3F6EE1
:10075A00000E406E416A426AE80E436E030E446E12
:10076A0065DF200E3D6E020E3E6E000E3F6E000EDD
:10077A00406E010E416E000E426EE80E436E030E8D
:0C078A00446E54DFDBDFD5DEFED7FFD766
:020000040030CA
:0D000100220F0EFF0181FF0FC00FE00F4026
:00000001FF
