:040000004AEF01F0D2
:1000080000C016F001C015F0F294D6D82C6A020E82
:100018002C5CD8B0C4D0090E006E000E016E2CC046
:1000280004F0000E056ECFD8170E0024E96E000EFE
:100038000120EA6EEECF01F0EECF02F0EECF03F032
:10004800EECF04F0000E006E041808E1005003180B
:1000580005E10050021802E10150000AD8B49DD011
:10006800090E006E000E016E2CC004F0000E056E25
:10007800AAD8170E0026000E0122040E0024E96EED
:10008800000E0120EA6EEECF01F0EECF02F0000E76
:10009800021802E1000E01185BE1090E006E000E65
:1000A800016E2CC004F0000E056E8DD8170E0026C8
:1000B800000E0122080E0024026E000E0120036EBD
:1000C80002C0E9FF03C0EAFFEE50010F006E02C054
:1000D800E1FF03C0E2FF00C0E6FF090E006E000E5C
:1000E800016E2CC004F0000E056E6DD8170E0026A8
:1000F800000E0122060E0024E96E000E0120EA6EB1
:10010800EECF01F0EECF02F0000E021802E1000E71
:1001180001181DE0090E006E000E016E2CC004F0DF
:10012800000E056E50D8170E0026000E0122040E90
:100138000024E16E000E0120E26E060E0024E96E36
:10014800000E0120EA6EEECFE6FFEECFE6FF25D0E7
:10015800090E006E000E016E2CC004F0000E056E34
:1001680032D8170E0026000E0122040E0024026E5B
:10017800000E0120036E02C0E9FF03C0EAFF010E72
:10018800EE5C006E000EEE58016E02C0E1FF03C087
:10019800E2FF00C0E6FF01C0E6FF2C2A38D716C0F0
:0801A80000F015C001F0110088
:1001B0000900F5CFE6FF0006FBE10106F9E11200B8
:0E01C000D59EFF0ED76EE10ED66ED58E1200C4
:1001CE000B6A0A6A096A00500402F4CF09F0F3CFF1
:1001DE0008F001500502F4CF0BF0F3CF0AF00050F7
:1001EE000502F3500926F4500A22E86A0B22015048
:1001FE000402F3500926F4500A22E86A0B2208C0C2
:10020E0000F009C001F00AC002F00BC003F01200AA
:10021E00010E2B6E29C001F02BC000F0015004E03E
:10022E0000360090FF0FFBD700C02BF0001E0050D1
:10023E0093162A50010A03E12B50811204D02B1C75
:08024E00006E00508116120041
:08025600936A29C081FF120028
:10025E00010E2A6E29C001F02AC000F0015004E000
:10026E0000360090FF0FFBD700C02AF0005093120B
:10027E0000508114016E0150000A02E1006A02D0A2
:06028E00010E006E1200DB
:10029400FF0E296EDEDF296AE0DF00C02AF0070EB8
:0802A400296EBBDFF8D7FFD77C
:020000040030CA
:0D000100220F0EFF0181FF0FC00FE00F4026
:00000001FF
