:100000004DEF00F00000000000EF00F000000000E5
:0A0010000000000000000000F3D71C
:10001C00010E176E15C001F017C000F0015004E07E
:10002C0000360090FF0FFBD700C017F0001E0050E9
:10003C0093161650010A03E11750811204D0171CB5
:08004C00006E00508116120045
:100054000900F5CFE6FF0006FBE10106F9E1120015
:10006400010E166E15C001F016C000F0015004E038
:1000740000360090FF0FFBD700C016F0005093121B
:1000840000508114016E0150000A02E1006A02D09E
:06009400010E006E1200D7
:10009A00156AE3DF00C016F0070E156EBADFF8D74F
:0200AA00FFD77E
:020000040030CA
:0D000100220F0EFF0181FF0FC00FE00F4026
:00000001FF
