:1000000044EF00F00000000000EF00F000000000EE
:0A0010000000000000000000F3D71C
:10001C00030E026E15C000F0000E016E025005E0DA
:10002C00003600900136FF0FFAD716500026000E4E
:10003C000122AC0E0024F66E000EF76E000EF722B5
:10004C00000EF86E000EF8220900F5CF00F0001C2F
:0E005C00816E162A080E165CD8B0166A1200C5
:10006A000900F5CFE6FF0006FBE10106F9E11200FF
:0E007A00936AFF0E816E020E156E166A12005A
:10008800F8DFC8DF060E0B6E130E0C6EAD0E0D6E8C
:100098000D2EFED70C2EFCD70B2EFAD70000000031
:0400A800F0D7FFD7B7
:1000AC008040201008040201C06030180C06038147
:0800BC00E070381C0E0783C13F
:020000040030CA
:0D000100220F0EFF0181FF0FC00FE00F4026
:00000001FF
