:1000000032EF00F00000000000EF00F00000000000
:0A0010000000000000000000F3D71C
:10001C000900F5CFE6FF0006FBE10106F9E112004D
:10002C00010E176E15C001F017C000F0015004E06E
:10003C0000360090FF0FFBD700C017F0001E0050D9
:10004C0093161650010A03E11750811204D0171CA5
:08005C00006E00508116120035
:10006400070E156E166AE0DF060E0B6E130E0C6E8D
:10007400AD0E0D6E0D2EFED70C2EFCD70B2EFAD71F
:1000840000000000070E156E010E166ECDDF060E81
:100094000B6E130E0C6EAD0E0D6E0D2EFED70C2EC8
:0E00A400FCD70B2EFAD700000000DAD7FFD7EA
:020000040030CA
:0D000100220F0EFF0181FF0FC00FE00F4026
:00000001FF
