:1000000014EF01F00000000000EF00F0000000001D
:0A0010000000000000000000F3D71C
:10001C000134083609360450085E0550D8A0053C5A
:10002C00095E003601360F0E0C6E013408360936A7
:10003C00045000A006D0085E0550D8A0053C095E0F
:10004C0005D008260550D8B0053C092600360136E7
:10005C000C2EEBD700B006D0045008260550D8B0B3
:08006C00053C0926000012000A
:1000740024C002F025C003F002C000F003C001F068
:10008400024A032A00C0E9FF01C0EAFFEE5201E080
:10009400F3D72450025C006E25500358016E010E04
:0800A400005E000E015A12007B
:1000AC000450000A08E10550000A05E1FF0E006E3D
:1000BC007F0E016E57D00D6A096A086A0150001054
:1000CC00D8B4000C015005180A6E0ABE0D1E0B6A3E
:1000DC0005AE05D0041E051E042AD8B4052A01AEAF
:1000EC0005D0001E011E002AD8B4012A01500510AB
:1000FC000A6E0ABE10D08CDF0BB020D00DAE000CF7
:10010C00001E011E002AD8B4012A081E091E082A46
:10011C00D8B4092A000C05AE0DD001BE07D0015091
:10012C00096E0050086E016A006AE8D7016A006A1D
:10013C00002A000C011E001E0B2ADDD7082AD8B499
:10014C00092A0450085CD8A4D9D70550095CD8A456
:10015C00D5D7096A086A002AD8B4012A01AECED7CD
:06016C000000FF0C120070
:10017200236A1EC024F01FC025F07BDF00C022F0DE
:10018200206A080E205C32E220501D24006E016AB3
:10019200000E01222250080F046E056A000E05228D
:1001A20084DF08C000F009C001F000C021F0080E91
:1001B200005C01E319D020501E24E96E000E1F20BE
:1001C200EA6EEE50310A10E1500E2124F66E020E54
:1001D200F76E000EF722000EF86E000EF8220900EC
:1001E200F5CF00F000502312202ACBD723C000F015
:0201F2001200F9
:0E01F400936AFF0E816E020E1C6E1B6A1200D3
:100202001BC01DF0150E1E6E000E1F6EB1DF001C0E
:06021200816E1B2A1200A0
:100218000900F5CFE6FF0006FBE10106F9E112004F
:1002280037EC01F0E3DFE9DF060E0B6E130E0C6E00
:10023800AD0E0D6E0D2EFED70C2EFCD70B2EFAD759
:0802480000000000F0D7FFD711
:10026E0010EE15F0060E006E010E016E680EF66EA3
:0E027E00020EF76E000EF86E0CEC01F012008E
:100250008040201008040201C06030180C060381A1
:08026000E070381C0E0783C199
:060268003131303131009C
:020000040030CA
:0D000100220F0EFF0181FF0FC00FE00F4026
:00000001FF
