:1000000048EF00F00000000000EF00F000000000EA
:0A0010000000000000000000F3D71C
:10001C00086A080E0C6E003408360450085ED8B01E
:0E002C0002D00826D89000360C2EF5D7120010
:10003A000900F5CFE6FF0006FBE10106F9E112002F
:10004A000A0E046E15C000F0E4DF08C000F0B40E1A
:10005A00016E000E026E000E036E00500124F66E51
:10006A00000E0220F76E000E0320F86E0900F5CF8D
:0A007A0000F0001C816E152A120030
:0C008400800E93167F0E8112156A120088
:10009000F9DFDBDF060E0B6E130E0C6EAD0E0D6E70
:1000A0000D2EFED70C2EFCD70B2EFAD70000000029
:0400B000F0D7FFD7AF
:0A00B4003F065B4F666D7D077F6F0E
:020000040030CA
:0D000100220F0EFF0181FF0FC00FE00F4026
:00000001FF
