:100000002AEF00F00000000000EF00F00000000008
:0A0010000000000000000000F3D71C
:10001C00151C816E15C001F00132019E01C015F056
:0C002C000150000A02E1800E156E120067
:100038000900F5CFE6FF0006FBE10106F9E1120031
:0C004800936AFF0E816E010E156E12000F
:10005400F9DFE2DF060E0B6E130E0C6EAD0E0D6EA5
:100064000D2EFED70C2EFCD70B2EFAD70000000065
:04007400F0D7FFD7EB
:020000040030CA
:0D000100220F0EFF0181FF0FC00FE00F4026
:00000001FF
